:020000040000FA
:020000000A28CC
:0E001200242888018316031306309F00850101
:100020008601F030880083120313000019200000BD
:100030002428BC01A901BA01A801A7010510851453
:100040000030E6208600080001308800081A7A2077
:10005000881A7520081B7020881BA715023088009D
:10006000081A6B20881A6620081B6120881B271538
:1000700004308800081A5C20881A5720081B522078
:10008000881BA71408308800081A8F28881A7F2038
:10009000081B9528881B27142428271A8A20271E26
:1000A0008420080009304D20081B5428080008301F
:1000B0004D20881A5928080007304D20081A5E285C
:1000C000080006304D20081B6328080005304D202D
:1000D000881A6828080004304D20081A6D28080086
:1000E00003304D20081B7228080002304D20881A6A
:1000F0007728080001304D20081A7C2808000030BD
:100100004D20881A81280800A900E6208514860061
:1001100027160800BA00E62085148600080019207A
:1001200008308800081A922824282718B420A71815
:10013000B8202719BC20A719C120D120051085148B
:100140003B08E6208600C820851005143C08E62000
:100150008600C82008308800081E9E2885140514D3
:100160000030E62086000A2829083A07A80008007F
:100170003A082902A80008002908A807BA0BBD28D8
:1001800008003A08A902031CC728A80AC1280800C9
:10019000F030A2000F30A300A30BCC28A20BCA287A
:1001A000080003140A302802031CD9200318DC209D
:1001B00008002808BB0008000A30A802031CE22837
:1001C000BC0ADC280A30A807D9200800820740347E
:1001D000793424343034193412340234783400340D
:0201E0001034D9
:02400E00313F40
:00000001FF
